:020000040800F2
:1000000070070020850100088D0100088F0100089D
:10001000910100089301000895010008000000000C
:100020000000000000000000000000009701000830
:1000300099010008000000009B0100089D010008D4
:100040009F0100089F0100089F01000800000000B8
:10005000000000009F0100089F0100089F010008A8
:100060009F010008000000009F0100089F01000898
:100070009F010008000000009F0100089F01000888
:100080009F0100089F010008000000009F01000878
:100090009F010008000000000000000000000000B8
:1000A0000000000000000000000000009F010008A8
:1000B0009F0100089F0100089F0100089F010008A0
:1000C00000F002F800F04FF80AA090E8000C82441B
:1000D0008344AAF10107DA4501D100F044F8AFF2F8
:1000E000090EBAE80F0013F0010F18BFFB1A43F016
:1000F000010318472C3600004C360000103A24BF8C
:1001000078C878C1FAD8520724BF30C830C144BF7C
:1001100004680C60704700000023002400250026BE
:10012000103A28BF78C1FBD8520728BF30C148BF5A
:100130000B607047662903F0CD81002070471FB522
:100140009DE8030000F0AEFF00F030FB040000204B
:10015000002102F031FCE06000F044FC1FBD10B54E
:1001600000F0A9FC10BD00F011FD1146FFF7E7FFFC
:1001700001F090FE00F000FF03B4FFF7F0FF03BCB6
:1001800001F022F90948804709480047FEE7FEE7E9
:10019000FEE7FEE7FEE7FEE7FEE7FEE7FEE7FEE737
:1001A00004480549054A064B70470000191D000820
:1001B000C1000008700100207007002070030020BB
:1001C000700300200FB4044910B503AA029800F090
:1001D000DBFA10BC5DF814FB640000202DE9F04749
:1001E0004FF0000A89460446C0F820A02046E16886
:1001F0008847002876D0252806D0D4E901219047E9
:10020000206A401C2062F1E7E1682046002588470B
:10021000C4F81CA006460027C4F818A02A2E09D04E
:10022000304601F023FE38B304EB8708303EC8F8AF
:10023000186019E059F8041B204604EB870291610D
:10024000E1688847012F064618D1E069002820DAC6
:1002500025F020051DE0D8F8180000EB800006EB23
:1002600040003038C8F818002046E1688847064644
:1002700001F0FCFD0028EED1012F0AD02E2E08D16E
:100280002046E16888477F1C0646022F45F020057E
:10029000C4DBA069002803DA404245F00105A061F3
:1002A000E80701D025F01005B6B1A6F141001928E4
:1002B00002D8203645F400654A463146204625607E
:1002C0004D46FFF737FF58B1012806D0ED1D25F048
:1002D000070000F1080989E704E005F1040985E752
:1002E00030468AE7206ABDE8F08710B5203AC0F0B2
:1002F0000B80B1E81850203AA0E81850B1E8185027
:10030000A0E81850BFF4F5AF5FEA027C24BFB1E863
:100310001850A0E8185044BF18C918C0BDE81040D4
:100320005FEA827C24BF51F8043B40F8043B08BFDD
:100330007047D20728BF31F8023B48BF11F8012BA4
:1003400028BF20F8023B48BF00F8012B70477047D8
:100350007047704710B500F02DFA006810BD10B559
:10036000044600F027FA046010BD70472DE9FF4FE6
:100370000C461E464FF0FF378BB0D2E90001DDF886
:1003800060800A908A46C1F30A5505B93D460021AE
:1003900008464FF00000BAF1000F00F4400005DA03
:1003A00000EB80004FF4400101EA50004FEA905901
:1003B000B9F1010F00DDB9460A9850EA4A000ED0A3
:1003C00044F61050A5F2FF3545432F14B8F1000F45
:1003D0001ED07542291E1EDDC9F100021CE0B8F1D5
:1003E000010F4FF0000001D0302103E0F24305E09F
:1003F0002154401CB042FBDB304600220021215436
:100400000B99C1F80880C1E900200FB0BDE8F08F5A
:10041000BD1B6D1CDEE74A4600DA694206A800F003
:100420006BFA06AB93E8070003AB83E8070050467E
:100430000A9901F061F88DE80700A0F500501F3817
:1004400000900398002D0ADD42F21F014A4608443D
:10045000002303A90390684601F0CAFA09E0A0F559
:1004600000504A461F38002303A90390684601F054
:10047000D4FA8DE807000004000C03D04FF0FF30E1
:10048000410800E01046B8F1000F03D000220092AE
:1004900015461EE0751E05D400F090F93032625505
:1004A0006D1EF9D5B3460122084302D000227F1CFD
:1004B00004E02078302801D100227F1E002A09970D
:1004C00084D01DE0112D07DA00F078F93032625542
:1004D0006D1C50EA0102F5D1084302D00098C8B162
:1004E0000EE00021681E05E0235C625C6354225428
:1004F000401E491C8142F7DBAB46A81B401E0990F9
:10050000002004F80B000B98099AC0F80880C0E995
:10051000002B7AE711264FF0000857E72DE9F04F3E
:1005200088460446D21D22F0070191B0D1E90001AE
:10053000CDE90A0101F010FC02460B98C00F01D072
:100540002D2007E02068810701D52B2002E0202123
:1005500001EAC000032A099001D0072A05DB0346FF
:100560004146204600F088F90BE12078800601D54D
:10057000E06900E00620B8F1650F814606D0B8F1C9
:10058000660F18D0B8F1670F70D131E00020B9F1D3
:10059000110F009001DB112301E009F101030AAA08
:1005A00001A90CA8FFF7E2FEDDE90C70002609F1B5
:1005B0000105834647E001204B4600904FF000477D
:1005C0000AAA01A90CA8FFF7D1FEDDE90DB00C992C
:1005D0005D46002610B909F101000D18B9EB0500C0
:1005E00003D4C0F1FF3609F10105A5EB09002BE0AA
:1005F000B9F1010F01DA4FF001090020B9F1110F33
:100600000090484601DD112300E003460AAA01A933
:100610000CA8FFF7ABFEDDE90C704D4600268346C3
:10062000207800070AD4AB4500DA5D4601A8012D09
:1006300004DD411911F8011C302907D04F4502DAB9
:1006400017F1040F04DA012082460FE06D1EEEE779
:10065000002F02DCED1B3E4403E0781CA84200DDC5
:100660007D1CB81B00F1010A4FF0004720780007FD
:1006700003D4AA4501DB4FF0FF3A0021B7F1004F48
:100680000DF143088DF8431024D002202B23002FB6
:1006900001DA7F422D230A21021EA0F1010000DCB5
:1006A0005FB197FBF1FC97FBF1F201FB1C7C174655
:1006B0000CF1300C08F801CDEEE7A8F10100037051
:1006C0002188090501D5452100E06521A0F1010837
:1006D00000F8011C09980FA9A1EB0807FF1D00B144
:1006E0000120411901EBEA70A1693844081A401E43
:1006F000A0612078C00602D42046AFF3008009989C
:1007000028B1D4E901219047206A401C206220785A
:10071000C00622D52046AFF300801EE0002E04DB89
:10072000B34502DD01A8805D00E03020D4E901215D
:100730009047206A401C2062761CAAF101005FEA03
:10074000000A0AD100F032F8C0680168405CD4E9C0
:1007500001219047206A401C2062281EA5F1010556
:10076000DCDC07E0D4E9012118F8010B9047206A8E
:10077000401C2062381EA7F10107F3DC2046AFF3CE
:100780000080032011B041E6074B70B50D467B4455
:1007900000F05FF80446284600F020F910B14FF051
:1007A000FF3070BD204670BDE9160000004870475C
:1007B0002C010020004870470C01002030B5B0F13A
:1007C0000A024FEA900E71F100034EEA817EB0EB0F
:1007D0000E0061EB91014FEA101E4EEA017E10EB14
:1007E0000E0041EB11114FEA102E4EEA016E10EB94
:1007F0000E0041EB11214FEA104E4EEA014E10EB74
:100800000E0041EB1141401841F100014FEAD000C8
:1008100040EA41704FEAD10110EB80054FEA8104B4
:1008200044EA907444EB01046D1944EB0404521B38
:10083000A3414FF0000348BF0A3200D530BD401C31
:1008400041F1000130BD000001694A1C02610878D5
:10085000704700B58FB0CDE9013100210591054900
:100860007944CDE9031011466846FFF7B7FC0FB095
:1008700000BD0000E5FFFFFF2DE9F0411F460446E3
:1008800003260168072A01F4006004DB08B116A5FD
:1008900005E016A503E008B115A500E015A521F0B7
:1008A00010002060A069C01EA0610FB1401EA061B1
:1008B0002046AFF300804FB1D4E90121384690477C
:1008C000206A401C2062C01C206206E0206AFAE711
:1008D000D4E9012115F8010B9047761EF8D2204685
:1008E000AFF30080BDE8F0814E414E006E616E00B6
:1008F000494E4600696E66002DE9F047814616466E
:100900008AB0354878440DC88DE80D0032487844E7
:10091000801C03AC0DC884E80D0041F69B300844F0
:10092000372190FBF1F290FBF1F5A5F1800501FB79
:1009300012041B3C02D56442012000E00020DFF8D5
:1009400098A080460027FA44AAF1BE0A0EE0E0070C
:100950000AD03246684607EB470101230AEB8101C2
:1009600001F05BF88DE8070064107F1C002CEED1CD
:10097000194F7F44AE3F19E0E80715D007EB04108C
:100980000DF1180A90E80E008AE80E00C068F042E7
:1009900001D1981908903246012306A903A801F055
:1009A0003CF803AB83E807006D10641C002DE3D115
:1009B0004FF0010332466946B8F1000F03A802D098
:1009C00001F016F801E001F028F8C9E90001C9F8C2
:1009D00008200AB0BDE8F087F42D0000007B00F08D
:1009E0008000704710B54248542100F0D5FA4148C4
:1009F000542100F0D1FA4048542100F0CDFA3F498B
:100A00003B483C4A3F4B08603D490A603A491960FF
:100A1000531C0365481C1065012008653B48344A97
:100A200039A1784400F00CFA20B9384878440A38E3
:100A300000F0ABFA37482F4A35A1784400F000FAAD
:100A400020B9344878440A3800F09FFA32482A4ADC
:100A50002FA1784400F0F4F920B92F4878440A38DF
:100A600000F093FA40232248DC000021224600F0E7
:100A7000C4F920B125487844543800F086FA1D485E
:100A800022464023002100F0B8F920B121487844E3
:100A9000543800F07AFA184822461023002100F05A
:100AA000ACF9002806D01C487844BDE81040563800
:100AB00000F06BBA10BD104870B5006D20F0010455
:100AC0000B4800F033FA0B4800F030FA0A4800F007
:100AD0002DFA09E0206D20F00105204600F026FAED
:100AE000204600F078F82C46002CF3D170BD0000B1
:100AF0001000002064000020B80000200400002046
:100B0000080000200C00002072000000EE2C000005
:100B100077000000DA2C0000C62C00000EB5CDE9ED
:100B2000000100F031FC029069460120ABBE0EBD11
:100B300008B5694600900220ABBE08BD1FB58DE820
:100B4000070069460520ABBE04B010BD1FB58DE897
:100B50000F0069460620ABBEF6E708B5694600906F
:100B60000920ABBE08BD1CB5CDE9000169460A20CD
:100B7000ABBE1CBD704708B5694600900C20ABBEEB
:100B800008BD0000004870470C0100207546FFF7C3
:100B9000F9FFAE4605006946534620F0070085463A
:100BA00018B020B5FFF7FCFABDE820404FF0000672
:100BB0004FF000074FF000084FF0000B21F0070145
:100BC000AC46ACE8C009ACE8C009ACE8C009ACE888
:100BD000C0098D46704770B50446051F00F046FAFF
:100BE0000068002C14BF446870BD002C18BFAC42D4
:100BF0003CBF20466468F8D301680A18AA4218BFAF
:100C0000456003D12A6805461144016028684119EE
:100C1000A1421CBF6C6070BD6168696021680844B6
:100C2000286070BD2DE9F04705460C46C86820F4E1
:100C3000201040F48000C860800602D5084600F00D
:100C400062FBE06841F282014FF0FF390140022966
:100C500003D0204600F000FBB5E000F42041B1F5E0
:100C6000004F0FD1C00306D56168E06A884200D802
:100C70000846606006E02069E06260606069FFF736
:100C80007AFFA061A0680022EEB200280DDAE168C8
:100C90008B050AD4C043A06041F490302260E0602C
:100CA0006068411C61600670A5E0E06890462260C3
:100CB00040F40050E060206968BB6069FFF74DFFB9
:100CC000012704F12405A0B1A08910F4407F08D0C9
:100CD000E06900F016FA206118B1E06840F40060A5
:100CE00016E0E7612561E06820F4407040F4806020
:100CF0000EE0E06900F005FA00282061F1D0E0681C
:100D000040F4006010F4407FE06002D140F4807055
:100D1000E06020696060E06825696FF0010AC10544
:100D20001FD56168E06A884200D80846411B04D09C
:100D30002246284600F09AFAF0BBE068010203D58B
:100D4000E562C4E9015854E0691CE1626160E1694F
:100D500040F48030491EC4E9021030462E70BDE8D0
:100D6000F087010202D500F480320AE06068411C7D
:100D700061600670E0680A2E40F48030E06006D0C2
:100D80000022E16A6068814203D90B4602E0012239
:100D9000F7E70346A7895B1B7F0503D4E7699F42FA
:100DA00000DDE2B1814200D80146E5620F1AC4E9D4
:100DB0000158002B09DD00E005E0224619462846CF
:100DC00000F054FA08B14846C9E747B1A069E562A6
:100DD0006560C01BA061E06840F01000E060E06862
:100DE000000208D56168A069E562491B0844656096
:100DF000A0615046B3E73046B1E770B5C468A507B7
:100E000013D0650211D4B2F5807F09D0B2F5007F0E
:100E100006D0B2F5806F08D1012300F1240106E06D
:100E20005D1E6FF07F46B54201D3012070BD0161A8
:100E3000C361416024F470611143C160002070BD42
:100E40002DE9F0410C4607461646104600F06EF8B4
:100E50002078611C61280AD0722802D077283CD102
:100E600002E00125002405E00225042402E0082414
:100E700048F2020511F8010B2B2806D0622809D090
:100E800011F8010C74280AD00BE045F0030544F07A
:100E90000204EFE745F0040544F00104EAE744F0FA
:100EA000100438462146FFF739FE411C15D00021B9
:100EB000316171604FF40071F560F161706120077C
:100EC00004D530460222002100F04AF9306D40F08E
:100ED000010030653046BDE8F0810020FBE72DE9D8
:100EE000F0410D460646104C206DC10704D0410864
:100EF00004D020F00104F7E722460EE0542000F071
:100F000000F907000ED0206D47F00101084354217D
:100F10002065384600F040F83A4629463046BDE89C
:100F2000F0418DE70020D6E7100000202DE9F047C2
:100F300004464FF000094FF0FF37C568D4E9048636
:100F4000A80707D0204600F0BBF93046FFF7F0FDB8
:100F5000002802DA3846BDE8F087280502D5404669
:100F6000FFF739FE4C21204600F016F8206D20F0E6
:100F7000010020654846EEE710B50446AFF3008057
:100F80002046BDE81040FFF7F7B810B500F0E2F9D1
:100F9000BDE8104000F0D8B94FF0000200B513468C
:100FA00094469646203922BFA0E80C50A0E80C5089
:100FB000B1F12001BFF4F7AF090728BFA0E80C503A
:100FC00048BF0CC05DF804EB890028BF40F8042B33
:100FD00008BF704748BF20F8022B11F0804F18BFA0
:100FE00000F8012B704700004FF0013C50F8042B33
:100FF00051F8043B9A4221D1A2EB0C03934313EA2C
:10100000CC1317D150F8042B51F8043B9A4215D158
:10101000A2EB0C03934313EACC130BD150F8042B2F
:1010200051F8043B9A4209D1A2EB0C03934313EA13
:10103000CC13DBD04FF00000704700BFD01A01BACC
:10104000B1FA81F101F0180122FA01F0CB40C1F1AF
:101050002001DBB2C0B2C01A2CFA01F3D11A9143BD
:1010600011EAC311E6D1704770470000004870478D
:1010700014010020704770477047704738B5044628
:101080000A4600206946AFF30080002808BF38BD3B
:1010900002460099204600F0A4F9012038BD012045
:1010A00000F0F3B9F8B5AFF30080054600200C4618
:1010B000102000BF0646A819A0420DD93246694645
:1010C0000020AFF30080070008BF00F0DEF90098B1
:1010D000A04218BF0546C419FFF7C8FF05600746C0
:1010E000F01D20F007004619284600F073F9B442BD
:1010F00008BFF8BDA21B31463868BDE8F84000F0D3
:1011000070B970B50646FFF7B1FF056806F10B0030
:1011100020F00704B4429CBF002070BD2B466A68D3
:10112000BAB11068A04210D304F1080188423CBF54
:101130005068586007D35168101941601168091B45
:10114000016058601460101D70BD13465268002A7B
:10115000E7D121462846FFF791FF0028DED170BD78
:101160002DE9F041044616460D464769007B80078D
:101170002ED03846FFF7F1FC50BB3EB3012E02D013
:10118000022E25D104E0204600F045F905441DE07B
:101190003846FFF7F0FCE168002841F01001E160FB
:1011A00005DA204600F058F80120BDE8F081C903B7
:1011B0000BD56268E16A914200D81146A2691144D8
:1011C0002269891A814200DD08460544002D01DAB2
:1011D0000220EAE7E16A6068E268814206D2910390
:1011E000E06203D522F4003141F01002A669002725
:1011F000AE4213DCE16A814201D90B4600E00346AE
:1012000003EB060C2369ACEB030CAC4506DD814215
:1012100001D98C4600E084469C4505D1A760276033
:1012200042F02000A5620DE0AD1BE669AE1B8142D5
:10123000A66000D90846C01A281A206058196060B4
:1012400022F0200003490840E060002084F8487044
:10125000ABE70000BFCFD7FFC16821F4001141F018
:101260008001C16000218160016070472DE9F04775
:10127000814614460E464FF0FF383248D56857690C
:10128000054209D03846A169FFF76DFC002811DB43
:101290002C48C0430540E5602B4632464946384657
:1012A000FFF74CFCA16920F00042B21A114400285B
:1012B000A16103D02046FFF7CFFF4046BDE8F0878D
:1012C00070B504460569C06A6168884200D808465E
:1012D000E16821F42011E160C90312D5A84208D0C9
:1012E0002246411B2846FFF7C1FF10B14FF0FF30E7
:1012F00070BD0020E562C4E90150E06820F4803050
:10130000E060002070BD10B50446C06820F02000E9
:10131000E060A16AA06988420DD02046FFF7D0FFA7
:10132000E06820F4405040F01000E060A06AA06146
:101330002069E062606044F24001E0688843E06058
:1013400010BD000010000200002801D000F03CB8E1
:101350007047000010B5014602A000F07DF80120A2
:1013600010BD000053494752545245443A2052653B
:101370006469726563743A2063616E2774206F70CC
:10138000656E3A200000000010B5431C02E010F822
:10139000011B71B18107FAD14FF0013202C88C1ADA
:1013A0008C4314EAC211F9D0C01A0A0603D0C01E39
:1013B00010BDC01A10BD0A0401D0801E10BD090264
:1013C000FCD0401E10BD000001491820ABBEFEE756
:1013D0002600020000210160C0E9011070471020C2
:1013E0007047034640688C46002818BF88423CBFBF
:1013F00003464068F8D318681844884207D00CF1B7
:10140000030020F00700001D411A521A0146081D72
:101410000A60FFF7E0BB10B50146C268900703D031
:10142000900607D5886A0AE0FFF7C4F90121016038
:10143000881E10BD8B69486818440B69C01A91F862
:1014400048301BB191F84910401A10BD1103FCD56A
:101450000028FADD401E10BD70B505460C460A2076
:1014600000E06D1C00F018F835B128780028F8D19C
:1014700002E0641C00F010F814B120780028F8D1C4
:10148000BDE870400A2000F007B810B500F00CF875
:10149000BDE81040FFF758BF08B569468DF8000059
:1014A0000320ABBE08BD000010B5012805D0002107
:1014B00003A0FFF7D1FF012010BD09A1F8E700004C
:1014C00053494752544D454D3A204F7574206F662D
:1014D0002068656170206D656D6F72790000000095
:1014E0003A2048656170206D656D6F727920636F79
:1014F00072727570746564005FEA400C08BF91F009
:10150000000F4FEA8C234FEAC12243EA51514FEAC0
:101510001C5018BF00F5F0404FEA300018BF41F0F2
:1015200000415FEA6C5C00F02980BCF1FF3F08BF1E
:1015300040F080407047130C06BF12044FF0100CAF
:101540004FF0000C130E04BF12020CF1080C130F25
:1015500004BF12010CF1040C930F04BF92000CF1B4
:10156000020CD30F04BF52000CF1010C11464FF0D6
:101570000002A0F11F00A0EB0C00704711F0004F1B
:1015800008BF704731F000413FF4D5AF0B0C06BFE8
:1015900009044FF0100C4FF0000C0B0E04BF0902B1
:1015A0000CF1080C0B0F04BF09010CF1040C8B0F9C
:1015B00004BF89000CF1020CCB0F04BF49000CF1F1
:1015C000010CCCF12003A0EB0C0022FA03F302FA89
:1015D0000CF241EA030100F10100704720F07F4C5A
:1015E00080EA030023F07F47ACEB070303F57C534D
:1015F00000F0004003F1FF032DE980494FEA154B4D
:1016000009B44FEA144325EA0B4E24EA03480FF2CB
:10161000042606EB132749083E785FEA320203FBF3
:101620000667C7F5000707FB06F64FEA54374FEA8F
:10163000D64606F1020607FB066CCCF1005C4FEAC9
:101640001C472CEA074C07FB06F40CFB06F504EBE1
:1016500015464FEA961634BF00204FF000404FEA7F
:10166000D13706FB07FC4FEA1C4C0CFB0BF7D21BD7
:1016700003FB0CF761EB07010CFB0EF7B0EB074027
:1016800072EB17420CFB08F734BFA2EB0742B2EB38
:10169000074261EB17414FEA0C444FEA910706FB02
:1016A00007FC4FEA1C4C0CFB0BF7B0EBC74072EB8E
:1016B000573203FB0CF734BFA2EBC742B2EBC74271
:1016C00061EB57310CFB0EF7B0EBC70072EB5772B2
:1016D0000CFB08F734BFA2EBC702B2EBC70261EB09
:1016E0005771039F4FEA816141EA921104EBCC04E8
:1016F0004FEAD1374FEA826206FB07FC42EA9012BA
:101700004FEA80604FEA1C4C0CFB0BF7D21B03FB2B
:101710000CF761EB07010CFB0EF7B0EB074072EB27
:1017200017420CFB08F734BFA2EB0742B2EB0742AB
:1017300061EB17414FEA8C554FEA910704EB9C246B
:1017400006FB07FC4FEA1C4C0CFB0BF7B0EBC74049
:1017500072EB573203FB0CF734BFA2EBC742B2EB7C
:10176000C74261EB57310CFB0EF7B0EBC70072EBD1
:1017700057720CFB08F734BFA2EBC702B2EBC702EB
:1017800061EB577115EB4C254FEA816141EA9211EB
:101790004FEA82624FEAD13742EA901206FB07FC19
:1017A00044F100044FEA80604FEA1C4C0CFB0BF73D
:1017B000D21B03FB0CF761EB07010CFB0EF7B0EB40
:1017C000074072EB17420CFB08F734BFA2EB07424D
:1017D000B2EB074261EB174115EB1C154FEA813163
:1017E00041EA92414FEA823242EA90424FEA803027
:1017F0004FEA0C7644F1000448EA03434EEA0B48F2
:101800004FF0000EB2EB080C71EB030724BF6246E9
:1018100039464EEB0E0E4FF0000B00185241494175
:101820004BEB0B0BB2EB080C71EB03077BF1000BDE
:1018300024BF624639464EEB0E0E4FF0000B0018E7
:10184000524149414BEB0B0BB2EB080C71EB030718
:101850007BF1000B24BF624639464EEB0E0E51EA77
:10186000020718BF46F0010616EB0E7655F100028E
:1018700054F1000103D5BDE88901BDE80088BDE849
:101880008901BDE80048B619524141EB0101A3F1BD
:101890000103704780807F7E7D7C7B7A79787776C4
:1018A00076757473727171706F6E6E6D6C6C6B6A3D
:1018B0006A696868676666656464636362616160DB
:1018C000605F5F5E5E5D5D5C5C5B5B5A5A59595858
:1018D00058575756565555555454535352525251C2
:1018E000515050504F4F4F4E4E4D4D4D4C4C4C4B18
:1018F0004B4B4A4A4A49494948484847474747465F
:10190000464645454544444444434343434242429A
:1019100042414141002B9C4630D477002BD01CB56E
:101920004FEA370703B44FF010004FF01001BAF13F
:10193000000F06D0BCF1000FDCBF40F0080040F003
:1019400008014FF000000FBCBDE810400BF1010B87
:10195000BBF1010F08BF5FEA170722BF12F10102B6
:1019600011F101014FF0004143F1000300F000408C
:1019700043EA00007047F9D35708D0E746EA064625
:1019800013F1400F4FEA16461FDD13F1200FDFBFA2
:1019900016430A46002120335B42BED0C3F1200724
:1019A00046EA064602FA07F74FEA164646EA0706EF
:1019B000C3F1200722FA03F201FA07F721FA03F133
:1019C0004FF0000342EA0702A7E746EA020646EAAA
:1019D00006464FEA164646EA0106BCBF46EA0646F8
:1019E000360C4FF000034FF000024FF0000194E777
:1019F0002DE9804C9A46934670B491E8380007C8A8
:101A000031EA400C48BF34EA430C03D5FFF7E6FD4A
:101A1000FFF780FFF0BCBDE8008C2DE9804C9A46B2
:101A2000934670B491E8380007C810F0804F08BFA3
:101A300013F0804F03D100F005F8FFF76BFFF0BC07
:101A4000BDE8008C20F07F4780EA030023F07F4C44
:101A500007EB0C03A3F57C5300F00040A3F1FE0359
:101A600092F0000F00F0B38095F0000F00F0778047
:101A70002DE901494FEA11404FEA144621EA004896
:101A800000FB06FC24EA064708FB06F607FB08F8FD
:101A900000FB07F718EB06484CEB164C4FEA124BCD
:101AA00018EB07484FEA15464CEB174022EA0B4E5D
:101AB0000BFB06FC25EA06470EFB06F607FB0EFEAF
:101AC0000BFB07F71EEB064E4CEB164C4FF00006D7
:101AD0001EEB074E4CEB174B18EB0B0840F10000C8
:101AE00018EB0E0B58EB000840F100008F1A4FF076
:101AF00000013CBFC943661B14BFB5EB040C0021B9
:101B00003CBFC943F61B4FEA17444EEA8E0E27EA44
:101B100004454FEA1C4704FB07622CEA074C05FB0F
:101B200007F70CFB05F604FB0CFC16EB074642EB33
:101B3000174216EB0C4642EB1C421BEB060658EB19
:101B40000202414146EA9E0601D5BDE80189B61967
:101B5000524141EB0101A3F10103BDE801894FEAC4
:101B600014454FEA114724EA054621EA074C05FBD4
:101B700007F406FB07F70CFB06F105FB0CFC11EB69
:101B8000074144EB17444FEA124711EB0C4144EB79
:101B90001C4422EA074C05FB07F206FB07F70CFB87
:101BA00006F605FB0CFC16EB074642EB174216EB5C
:101BB0000C4642EB1C456A1854F1000148BF7047BF
:101BC000B619524141EB0101A3F10103704795F0B1
:101BD000000F37D04FEA11424FEA144721EA02467C
:101BE00024EA074C02FB07F106FB07F70CFB06F49F
:101BF00002FB0CFC14EB074441EB17414FEA15477D
:101C000014EB0C4441EB1C4125EA074C02FB07F5A1
:101C100006FB07F70CFB06F602FB0CFC16EB07466F
:101C200045EB174516EB0C4645EB1C42121951F1DA
:101C3000000148BF7047B619524141EB0101A3F1C1
:101C4000010370474FEA14454FEA114724EA05465D
:101C500021EA074C05FB07F106FB07F70CFB06F230
:101C60004FF0000605FB0CFC12EB074241EB17415D
:101C700012EB0C4251EB1C4148BF7047921841EBEC
:101C80000101A3F10103704730B5204CE46804F072
:101C90000204022C01D11E4800E01D481B4CE468E0
:101CA00004F0010404B140080146184CE46804F053
:101CB0000404042C05D1154C6468C4F30324631C8C
:101CC0005943124CE468C4F3012424B1012C06D01A
:101CD000022C13D10DE00E4C0E4D2C6013E00B4C7A
:101CE000E468C4F30314641CB1FBF4F2094C2260F1
:101CF00009E04FF40044074D2C6004E049F64044ED
:101D0000044D2C6000BF00BF30BD00000000024049
:101D100000127A000000002000B50D480D49C8618E
:101D20000846C0680020C860084640680020486037
:101D30000846806800208860084600690020086125
:101D40000846406900204861FFF79EFF00BD000083
:101D50001000000800000240490050EAC12018BFEE
:101D600004204A0D18BF40F0010040F2FF72B2EBB0
:101D7000515F08BF40F00200012808BF05207047EE
:101D80002DE9F0414F1E00EBC7010446D1E90001E7
:101D900015461E4637F006020DD02A46334601F09E
:101DA00089F87F1E04EBC703D3E9002300F01AFE75
:101DB00037F00602F1D1022F25D0042F13D0062FC1
:101DC00018BFBDE8F0812A46334601F073F8D4E924
:101DD0000A2300F007FE2A46334601F06BF8D4E9E7
:101DE000082300F0FFFD2A46334601F063F8D4E9EA
:101DF000062300F0F7FD2A46334601F05BF8D4E9EC
:101E0000042300F0EFFD2A46334601F053F8D4E9ED
:101E1000022300F0E7FD2A46334601F04BF8D4E9EF
:101E20000023BDE8F04100F0DDBD000000221346B4
:101E30001046014900F092BE0000F03F00F0D2BD14
:101E4000002213461046114600F088BE40F20132CF
:101E500000204FF0E04101F071BB0000024A002079
:101E6000110701F06BBB000001FDFFFF30380A28AD
:101E700001D201207047002070478A68002A01DCE7
:101E8000FEF7D0BE521E8A604A68C0B2531C4B6037
:101E9000107070472DE9F04F8FB02822304904A808
:101EA000FEF723FA00210C460D460E460F468A46E1
:101EB00020E004A800EBCA0000224FF08043D0E9E4
:101EC00000B1584600F066F822462B46CDE90001E5
:101ED00000F088FD04460D4604A800EBCA00D0E9D6
:101EE00000B35A463046394600F07CFD06460F46A0
:101EF0000AF1010ABAF1050FDBD30022194B204683
:101F0000294600F02BFE04460D460022154B3046B4
:101F1000394600F023FE06460F4600224FF080436C
:101F20003046394600F036F822462B46CDE900010E
:101F300001F0F4F8804689464046494600F016FD17
:101F4000CDE9020142464B4607A0FEF73BF90BA044
:101F5000DDE90223FEF736F900200FB0BDE8F08F6F
:101F6000C835000800001440252E326620446973ED
:101F700070657273696F6E0A00000000252E32666C
:101F80002041766572616765206465766961746970
:101F90006F6E0A002DE9F04D1D460C4698B01746AD
:101FA00021F0004123F00043002814BF4FF0010C42
:101FB0004FF0000C0CEB440CFE4A0CEB02064FEA0F
:101FC000620C66452BD33E0018BF012606EB450682
:101FD0001644F94A964222D3F84A53EA070C02D033
:101FE000944205D148B918B000201146BDE8F08DE3
:101FF000002808BF4FF0000C01D04FF0010C0CEB93
:10200000440212F5001F0AD8002F14BF4FF0010C34
:102010004FF0000C0CEB450212F5001F07D918B069
:102020003A462B462146BDE8F04DFFF707BF002298
:10203000DFF88CA3002CB8BF534526DADFF884C341
:102040006345A8BF022220DADFF870C39C451CDC80
:10205000DFF874C30CEB235CBCF1140F08DDCCF18A
:10206000340627FA06FC0CFA06F6BE420DD108E04B
:102070005FB9CCF1140623FA06FC0CFA06F69E4270
:1020800003D10CF00102C2F1020251EA000C19D195
:10209000002D17DA002C18BF022A01D0012A07D020
:1020A0000220FEF75CF918B0BDE8F04DFFF7BEBEA8
:1020B0000220FEF754F9FFF7B9FE18B081F0004195
:1020C000BDE8F08DB7F1000C6CD1534525D104F17A
:1020D000804212F5801201BF00280020B74918B0D5
:1020E00008BFBDE8F08DB548884207DC002DA1BFD0
:1020F0006046294618B0BDE8F08D07E0281E05DAD5
:1021000080F0004118B06046BDE8F08DAF497944D9
:10211000D1E9000118B0BDE8F08DDFF8A0C2634539
:1021200025D1002D1FDA19B1514512D1D8B909E0D6
:10213000002840F0EC82A24A214618B062F31E014A
:10214000BDE8F08D0020214618B060F31E01BDE807
:10215000F08D08DA18B02346BDE8F04D02460020A5
:10216000614600F0FBBC18B02146BDE8F08D51453A
:1021700018DAB5F1804F0DD0A5F1005CBCF1FF5C21
:1021800010D1B4F1000C0DDB18B06146BDE8F04D84
:1021900000F0ECBB234618B00246BDE8F04D1946EE
:1021A00000F088BE060024F0004C3BD1D9B1514567
:1021B00033D1002C06DD002DA1BF0020514618B000
:1021C000BDE8F08D002C01DD002D1BDB002C13DAA7
:1021D000002D11DB012A4FF0000014BF78497C4923
:1021E00018B0BDE8F08D022A18BF002C0AD0012AD1
:1021F00008D1002C06DA0AE0002CB8BF002D11DA55
:10220000012A04D0002018B00146BDE8F08D18B0B6
:1022100000204FF00041BDE8F08DA1F14050B0F139
:102220007F601AD0012000EBE47050EA020421D054
:10223000624C521E4FF0000B104304BF4FF0000BD6
:10224000644C654883427CDD644A654893421FDDE7
:10225000884217DB002D25DB37E0002C00DA4AB17D
:10226000022A0CBF01204FF0FF3018B0BDE8F04D3E
:1022700000F0CCBD0120FEF772F818B0BDE8F04DBB
:10228000FFF7DEBD4D4A8A4202DC002D0ADC1CE06D
:10229000814202DA002D18DA04E0484B994220DD31
:1022A000002D12DD0220FEF75AF8FFF7CFFD05469C
:1022B0000E46002253465846214600F0FBFD18B05A
:1022C00066F31E012846BDE8F08D0220FEF747F8B0
:1022D000FFF7C4FD0A46214618B062F31E01BDE8AF
:1022E000F08D00223046614601F00AF880460E4625
:1022F0006FF0010201F022F94FF05532394B00F036
:102300000DFF4246334600F0D5FD0022364B00F06B
:1023100005FF82464246334604911046194600F0B6
:10232000C9FD5246049B00F0C5FD8A4600904FF05F
:10233000C0422E4B4046314600F0BCFD2C4A2B4B90
:1023400000E027E0CDE906015146009800F0B2FD1B
:1023500082460191274A284B4046314600F0AAFDAB
:102360005246019B00F0CCFF82460B460246059187
:10237000DDE9060100F036FBDDE90623002688468C
:10238000304600F0BDFF5246059B00F0C7FE0246F6
:1023900000F07EB90020B1F5801F07DA3522304603
:1023A000614601F0CBF806466FF0340000EB215097
:1023B00024E00000FFFF1F00FFFF0F000000F03FC0
:1023C0000000F07F0000404301FCFFFF66150000A5
:1023D0000000F0FF0000F0BF0000E0410000F0430B
:1023E000FFFFEF3F5555D53F0000E03F4715F73F52
:1023F000FE822B6544DF5DF80BAE543EA0F2FF3049
:102400000190C1F3130040F07F6141F0405102910F
:10241000FE498842D8BF002004DDFD498142C8BF83
:10242000012001DD0D9008E000200D900198401C76
:1024300001900298A0F5801002900299F548784426
:102440000B910D9900EBC100D0E900230F933046AA
:102450000A920B9900F054FFCDE90601DDE90A214B
:1024600030460F9B00F0BEFA02460B460020EA49B8
:1024700000F074FB059102460B460090DDE9060171
:1024800000F018FD1490E5488A464FF000087844A3
:102490000299006812904FF0005040EA61010D98D7
:1024A0000F9B01EB804000F5002109910A9A1298D8
:1024B00000F026FF32460B9B00F030FE42465346AA
:1024C00000F0F8FC0646029140465146099B129ADC
:1024D00000F0F0FCDDE9062300F020FE3246029B0E
:1024E00000F00EFF059B009A00F0E4FC0091149AA6
:1024F000049053461046194600F0DCFC064602469E
:10250000C7480B46029106217844FFF739FCCDE914
:102510000510029B32461046194600F0CBFCDDE95F
:10252000053200F0C7FC0591064653464046194661
:10253000149A00F057FA009B049A00F0BBFC324654
:10254000059B00F04FFACDE9051042465346104670
:10255000194600F0AFFC0022B24B02910A9000F045
:1025600041FADDE9053200F03DFA0E464246AD4B38
:10257000404600F0C5FE029B0A9A00F0C1FEDDE96C
:10258000053200F0CBFD424602910A9033461046D8
:10259000514600F08FFCCDE906015346149A02998A
:1025A0000A9800F087FC8A4602903346424600991A
:1025B000049800F07FFC5346029A00F013FA82461A
:1025C0000B4602460591DDE9060100F00BFADDE954
:1025D000062300208846064600F092FE5246059BE0
:1025E00000F09CFD824609914FF060428E4B3046D0
:1025F000414600F05FFC049006918C4A8A4B50469D
:10260000099900F057FC82460291894A894B30466D
:10261000414600F04FFC5246029B00F0E3F9864B26
:102620007B440D9A03EBC203D3E9002300F0DAF9EF
:102630000E900791019800F0E9FB0591DDE9061382
:1026400082460E9A049800F0CDF97C4A7A440D9B9C
:1026500002EBC303D3E900230093029200F0C2F916
:102660005246059B00F0BEF9002688465246304689
:10267000059B00F045FE009B029A00F041FE069B80
:10268000049A00F03DFE079B0E9A00F047FD0246BB
:1026900000200B4602903846294600F00BFC82468B
:1026A00001912B4638461946029A00F029FE32461F
:1026B000434600F0FFFB5246019B00F093F90746AA
:1026C0008A46324643462946029800F0F3FB054607
:1026D0000E463A46534600F085F9594A88469142DB
:1026E00021DBA8EB020353EA000210D12A4633464D
:1026F00000F006FECDE90401524A534B38465146DC
:1027000000F070F9DDE9042300F0D2FC21D20220B0
:10271000FDF725FEFFF79AFB0A46214618B062F343
:102720001E01BDE8F08D494B28F000429A4210D3BB
:10273000474A08EB020353EA00027FF4C6AD2A467B
:10274000334600F0DDFD3A46534600F0B1FC7FF61B
:10275000BCAD0022019228F000403E493E4A01EB08
:102760002051824223DA481C4FF4801121FA00F0F4
:1027700040443A4AC0F30A517A44394BA1F2FF313E
:10278000CB4020EA0303C0F3130040F48010C1F1F2
:102790001401C84012680190B8F1000FBCBF40425C
:1027A00001902846314600F0ABFD05460E462A460C
:1027B00033463846514600F015F94FF000084246BE
:1027C000284B4046059100F075FBCDE90601264AED
:1027D000264B4046059900F06DFB009102902A4679
:1027E00033464046059900F08BFD3A46534600F0CB
:1027F00095FC1F4A1F4B00F05DFB009B029A00F006
:10280000F1F80746884602460B4635E08E980300ED
:102810007AB60B00AE1100000000F03FE611000098
:10282000141100000000084009C7EE3FFD033ADC28
:10283000F5015B14E02F3EBEEC0F0000B00F00006E
:1028400000009040FE822B654715973C00CC9040DD
:1028500000346F3F01FCFFFF0000E03FFC0E000072
:10286000FFFF0F00432EE63F396CA80C615C20BED1
:10287000EF39FAFE422EE63FDDE9060100F0B2F83C
:10288000DDE9062305460E4600F03AFD3A4643468A
:1028900000F044FC0F462A46334600901046194685
:1028A00000F008FB824602462E4888460B4605216A
:1028B0007844FFF765FA5246434600F0FBFA2A4691
:1028C000334600F02BFC80468A463B46284631467C
:1028D000009A00F0EFFA3B46009A00F083F8069168
:1028E000009000224FF080434046514600F008FD22
:1028F0000F460C90424653462846314600F0DAFA1D
:102900003B460C9A00F02AF9069B009A00F0F8FC6E
:102910002A46334600F0F4FC0022134B00F0FEFB85
:10292000054601980E4601EB00510815002810DC01
:1029300028463146019A00F001FEFFF70DFA0428FF
:1029400008BFFFF78BFA28463146019A00F0F6FDE2
:1029500005460B4618B02A4658462146BDE8F04DBC
:1029600000F0A8BA9C0D00000000F03F2DE9F041F6
:1029700006460F4600F0DEFB041E0D4618BF012080
:10298000284320F00040C0F17F6000F1E040C00F1C
:102990000ED0301C18BF0120384320F00040C0F199
:1029A0007F6000F1E040C00F04BF0120FDF7D7FCBD
:1029B00020462946BDE8F08110B500290AD00878E4
:1029C000002807D005487844FEF70EFB002801D008
:1029D000002010BD0248784410BD00007A0D0000B0
:1029E000720D000010B591EA030F48BF83F0004359
:1029F00000F18E84841A71EB030C05D2121943EB9B
:102A00000C03001B61EB0C01DFF824E14FEA1154C9
:102A1000A4EB135C1EEA430F18BF9EEA445F73D019
:102A200023EA0E03DCF1200E21EA045143F4801363
:102A300032D322FA0CFE10EB0E0023FA0CFE41EB0F
:102A40000E01CCF1200E03FA0EFE10EB0E0051F138
:102A50000001B1F5801FCCF1200E32D201EB045100
:102A600012FA0EF2BDE8104058BF7047401C38BF44
:102A70005FEA420218BF7047002814BF20F001002F
:102A800041F100014FEA410313F5001F38BF7047C1
:102A9000A1F1C04100F006BB012A43EB0302ACF1F7
:102AA000200CDCF11F0E32BF4FF0000E23FA0CF3A6
:102AB00010EB030041EB0451B4EB115FD0D0A1EB5C
:102AC000045101F5801149085FEA300001EB04511F
:102AD0000ED350F1000038BF12FA0EFE08D1BDE847
:102AE0001040C9E7401C38BF5FEA4202CAD1C3E7C1
:102AF000BDE810404FEA410313F5001F38BF70478F
:102B0000A1F1C04100F0CEBA9EEA445F08D011EABC
:102B10005E0FBDE8104004BF01F000410020704787
:102B2000BDE8104070B500F06FFA00BF64FBBE3E18
:102B30000000E0FF02494FF0000000F0CDBC00BFF4
:102B40000000F87F491058BFC1F140415B1058BFE9
:102B5000C3F140438B42EFF3008070472DE9C04141
:102B600030B4DFF8A0C23CEA111418BF3CEA1314D9
:102B700000F0EC8081EA03051CEA111444EAD574E4
:102B800018BF1CEA131500F0C780A4EB05044FF032
:102B9000004545EAC12145EAC32341EA505143EAD1
:102BA000525304F17F74994204F500344FEAC02077
:102BB0004FEAC22208BF904200F09C804FEA1365A2
:102BC0000FF24016765D4FEA134506FB05F7C7F195
:102BD000807706FB07F74FEAD737A7FB03687642F3
:102BE000C8F58038A7FB06CE38BFA8F1010807FB5F
:102BF00008E64FF0000EA6FB028CE6FB03CEDCF1EC
:102C0000000CCEF1004E38BFAEF1010EA6FB0C5801
:102C10004FF000074FF00005E6FB0E87A1FB08C64A
:102C2000A0FB07CE16EB0E0645F10005E1FB07659C
:102C300015F1E04E7EBFA4F580345FEA46066D4193
:102C400016F1800745F100054FEA17274FEA06669F
:102C500047EA0567A6F1DE46B6F1805F4FEA152523
:102C60001FD9384624F0010C05EBC471BCF1FE6F8E
:102C700001EB0C1102D8F0BCBDE8008124425CBF1E
:102C800001F5801E9EEAC47F02D4F0BCBDE800813D
:102C9000244238D4F0BCA1F1C041BDE8004100F0AD
:102CA00001BA4FEAD22242EA43524FEAD323A7FBAA
:102CB00002864FEAD02040EA415007FB03661EEA35
:102CC0000E0F4FEAD12105FB026658BFA6EB005656
:102CD000B6EB00564FEA520E4EEAC37E18EB0E0ECC
:102CE00056EB530EBDD518EB02085E417F1C55F123
:102CF0000005B6E74FF480154FF000074FF00006CF
:102D00004FF00008ADE7F0BC4FF0000001F1C0410A
:102D100001F00041BDE8008111EA0C1F0CEA131517
:102D200000D00CE013EA0C1F00F025804FF00000EB
:102D3000F0BC81EA030101F00041BDE80081F0BC74
:102D4000BDE8004181EA030100F0ACB9F0BCBDE888
:102D5000004170B500F058F9097EFC3E00F007B85C
:102D600081EA03014FF0000001F00041704781EA61
:102D7000030100F097B9F0BCBDE800414FF000003E
:102D800021497047FFFDFBF9F7F5F4F2F0EEEDEBAA
:102D9000E9E8E6E4E3E1E0DEDDDBDAD8D7D5D4D359
:102DA000D1D0CFCDCCCBCAC8C7C6C5C4C2C1C0BFA5
:102DB000BEBDBCBBBAB9B8B7B6B5B4B3B2B1B0AFAB
:102DC000AEADACABAAA9A8A8A7A6A5A4A3A3A2A18F
:102DD000A09F9F9E9D9C9C9B9A999998979796954A
:102DE00095949393929191908F8F8E8E8D8C8C8BE6
:102DF0008B8A89898888878786858584848383826E
:102E0000828181800000FF070000F87F10F00042FF
:102E100048BF4042B0FA80F310FA03F10AD0C3F180
:102E20001D0303F580634FEA415002EB035202EBAE
:102E3000D12170474FF000007047000051EA030CA9
:102E400017D41CF5801F58BFBCF5801F00F1068009
:102E5000994218BF704708BF9042704707D711F5D5
:102E6000801F58BF13F5801F19D4994270478942BB
:102E700070471CF5801F08D5BCF5801FF7D58B4225
:102E800018BF704708BF824270474FF4001C1CEB0C
:102E9000410F38BF1CEB430F01D28B42704770B516
:102EA00000F0B2F8922449004FF000514FF08053E7
:102EB000FFF748BEDFF848C170B51CEA111E1EBFFF
:102EC0001CEA13159EEA0C0F95EA0C0F00F06F80B8
:102ED00081EA030423EA4C134EEAD47E21EA4C1122
:102EE00041F4801143F48013AE44A1FB024CA0FBDB
:102EF0000365AEF17F7E361955EB0C05A1FB034C43
:102F00004CF10003A0FB021C16EB0C06654153F1CB
:102F10000003094218BF46F0010613F4007F0BD1ED
:102F20004FEA03314FEA0530340341EA155140EAD4
:102F300016506FF003020AE04FEAC3214FEAC520A2
:102F4000F40241EA555140EA56506FF0020202EB9A
:102F50002E4201EB025585EACE710AD05FEA440C9D
:102F600018BF24F0004450F1000041F1000120EAB4
:102F7000D47040F2FE7C624500D270BDA84214BFFE
:102F80004FF080444FF04044002E08BF0024BEF1B3
:102F9000806FA8BFA1F1C041BDE8704080F282807F
:102FA0004FF0000001F1C04101F0004170479EEA7E
:102FB0000C0F0CEA131518BF95EA0C0F06D04FF052
:102FC000000081EA030E0EF0004170BD00F01CF815
:102FD0008900013E00F007B800F009B84FEA430C41
:102FE0005FEA5C5C08D081EA030100F05BB84FEA5D
:102FF000410C5FEA5C5CF6D14FF00000014970477C
:103000000000FF070000F87F0EF1020E2EF0030E05
:103010005EF8046B364205D4012A43EB030515F52F
:10302000001F12D8012841EB010C1CF5001F0CD821
:103030000ED14FEAD17C15F5001F0CEB4C0C0CF1B6
:10304000020C08BF4CEBD37C04E04FF0080C01E00D
:103050004FEAD37C0CEB4C0526FA05F606F0070682
:10306000B6F1040C06D20EEB860CBDE870404CF0B5
:10307000010C6047DFE80CF0090B02024FF0004141
:103080004FF00000A1F5002170BD1946104601283F
:1030900051EB010418BFD4F5001484BF002001F0E7
:1030A000004170BD0808A0F500114FEA31017047DA
:1030B00053EA010C17D41CF5801F58BFBCF5801FC4
:1030C00000F106808B4218BF704708BF82427047EC
:1030D00007D713F5801F58BF11F5801F19D48B42F5
:1030E00070479B4270471CF5801F08D5BCF5801FB8
:1030F000F7D5994218BF704708BF904270474FF408
:10310000001C1CEB430F38BF1CEB410F01D299424E
:1031100070470FB40CBC03BCFFF7C1BE91EA030FAC
:1031200010B581F000413FF565AC83F0004300F03D
:10313000EFB800002DE9F04101F5801CBCF5001F3F
:10314000C0F2C3804FEA115C21EA0C510CF1FD0C76
:1031500041F480115FEA5C0C0CF5C07C01D34000A7
:1031600049413DA4890241EA905187028E0E0A0C22
:10317000A45D04FB04F602FB06F6C6F14046A4FB80
:103180000662F60D46EA422606FB06F4A4FB01237E
:103190005242C3F1404338BF5B1EA6FB02420024EB
:1031A000E6FB0324D20B42EA4446A6FB0623A1FB1E
:1031B00002E2A3FB07E4A4184FF0000252F1000260
:1031C000E3FB01426442C2F1404E38BFAEF1010E52
:1031D000A6FB04234FF00002E6FB0E32A2FB0346DF
:1031E0004FF00004B61954F10004E2FB0264A1FBA5
:1031F00006E6A4FB07E816EB08064FF0000858F1B6
:103200000008E4FB01687642C8F1405838BFA8F1D5
:103210000108A2FB06E4A3FB08E52D194FF000040A
:1032200054F10004E2FB0854A1FB05E6A7FB04E807
:1032300018EB06084FF0000656F10006E1FB048685
:1032400018F1200556F10006A809A8F11B08B109DC
:1032500008F03F08B8F10A0F40EA86601CD901EB7C
:103260000C51BDE8F08100BFFCF5EEE8E2DDD8D3FB
:10327000CFCBC7C3C0BDB9B6B4B1AEACA9A7A5A3E7
:10328000A19F9D9B9A9896959392908F8D8C8B89F8
:103290008887868584838281A0FB006800FB01F219
:1032A00008EB4208B8EB872807D5341858EB01041F
:1032B000D5D5401C51F10001D1E7341A78EB010457
:1032C000CDD4401E71F10001C9E75FEA4C0C5FEA02
:1032D0009C5C0DD105D34FF0000001F00041BDE82A
:1032E000F081BDE8F04170B5FFF78EFE6DDBFFBEEB
:1032F000BDE8F0414FF00000004970470000F87F42
:1033000010B591EA030F48BF83F000433FF572AB5D
:10331000841A71EB030C07D212198CF0004C43EBAA
:103320000C03001B61EB0C01DFF8A4E14FEA115420
:10333000A4EB135C1EEA430F18BF9EEA445F00F043
:10334000B08023EA6E03524221EA0451C3EB6E03BC
:1033500038BF5B1EDCF1200E25D322FA0CFE10EBE9
:103360000E0043FA0CFE41EB0E01CCF1200E03FAE5
:103370000EFE10EB0E0051F10001CCF1200E29D40D
:1033800012FA0EF201EB0451BDE8104058BF70472D
:10339000401C1CBFB2F1004F704700280CBF491CF5
:1033A00020F00100704712EB020E43EB030218BF3E
:1033B0004FF0010E4EEA4202ACF1200CDCF11E0E81
:1033C00054D943FA0CFE10EB0E0051F1FF31CCF151
:1033D0001E0ED5D50EF1010E12FA0EFE404141EB44
:1033E000010101EB445C5FEA5C5C10D910EBDE701C
:1033F00001EB045138BFBEF1004FBDE8104018BFCB
:10340000704700280CBF491C20F00100704730D2E3
:103410004FEAD42C11F5001124F400641BD0B1FA4A
:1034200081F20B3AA41AA41ED2F12003914030FA83
:1034300003F31943904001EBCC71002C01EB0451D4
:10344000BDE81040A8BF704701F1C0414FF0000037
:1034500001F000417047B0FA80F310FA03F100D197
:1034600010BDE41A173C4805C90AE4E701EB045112
:1034700010BD491001EB0451BDE810404FEA300087
:1034800002E04FF0000170474A0008BF0042F8D048
:10349000B2F5001F28BF704701F000414FF0000057
:1034A00070479EEA445F07D011EA5E0FBDE8104006
:1034B00004BF002100207047BDE8104070B5FFF741
:1034C000A3FD00BF40DFF63E83F000411046704789
:1034D0000000E0FFFDF722B80CF00F03092B08BF36
:1034E000082000F059800A2B0BD0082B18BF70471A
:1034F00008BF1CF0400F0AD04FF000004FF0000151
:1035000070471CF0400F18BF4FF0004070471CF090
:10351000100F08D020F0704300F07F4242EAD30140
:103520004FEA4370704700F0604021F07F4242EA6A
:10353000000201F07F4040EA727070474FF0FF0CCC
:103540004CF4E06C1CEA11531CBF9CEA030C94453C
:10355000C2BFDA4201EB02517047002B0DD0BCF123
:10356000000F0FD0002A01F00041A4BF41F0E0415C
:1035700041F07F614FF00000704701F000414FF0D3
:103580000000704750EA01334FF09B0C18BF4CF01D
:10359000806C7FF4CFAA70471CF4801F11D01CF4FC
:1035A000E02F03D06FEACC31490070474FF0405014
:1035B000EFF3008222F0704242EA000282F30088B8
:1035C00070474FF000007047000000000000F03F1F
:1035D0000000000000000040000000000000084063
:1035E0000000000000001040000000000000144037
:1035F000000000000000F03F000000000000F83F65
:1036000000000000000000000000004003B8E23F9E
:10361000000000000000000006D0CF43EBFD4C3E50
:10362000033333333333E33FFFAB6FDBB66DDB3F45
:103630004D268F515555D53F01411DA96074D13F8D
:1036400065DBC9934A86CD3FEF4E454A287ECA3F87
:103650003E5555555555C53F93BDBE166CC166BF09
:103660002CDE25AF6A56113FF16BD2C541BDBBBE02
:10367000D0A4BE726937663E000000000000000062
:1036800002400000000000A0000000000540000013
:10369000000000C8000000000C4000000000409C3A
:1036A00000000000194000000020BCBE0000000027
:1036B00034400000BFC91B8E00000004B54000006C
:1036C000504BCFD06607E2CF010000006C410000F4
:1036D0003E8251AADFEEA73401000000D94200006B
:1036E000DCB5A0E23A301F97FFFFFFFFB4450000B2
:1036F000FD25A0C8E9A3C14FFFFFFFFFFF3F00006A
:103700000000008000000000FF3F0000000000807B
:10371000000000003A7474003A7474003A74740043
:103720005C3700080000002010000000FC000008CA
:103730006C37000810000020600700001801000826
:103740001C00000043000000F8FFFFFF0C00000019
:103750000E0000000F0000002E00000000127A0092
:0C3760000000000000000000000000005D
:040000050800018569
:00000001FF
